{
  "contractName": "SimpleRegulator",
  "abi": [
    {
      "inputs": [],
      "payable": false,
      "stateMutability": "nonpayable",
      "type": "constructor"
    },
    {
      "constant": true,
      "inputs": [],
      "name": "getAlert",
      "outputs": [
        {
          "internalType": "string",
          "name": "",
          "type": "string"
        }
      ],
      "payable": false,
      "stateMutability": "view",
      "type": "function"
    },
    {
      "constant": true,
      "inputs": [],
      "name": "getBalance",
      "outputs": [
        {
          "internalType": "uint256",
          "name": "",
          "type": "uint256"
        }
      ],
      "payable": false,
      "stateMutability": "view",
      "type": "function"
    },
    {
      "constant": true,
      "inputs": [],
      "name": "getAllClients",
      "outputs": [
        {
          "internalType": "address[]",
          "name": "",
          "type": "address[]"
        }
      ],
      "payable": false,
      "stateMutability": "view",
      "type": "function"
    },
    {
      "constant": false,
      "inputs": [
        {
          "internalType": "uint256",
          "name": "_threshold",
          "type": "uint256"
        }
      ],
      "name": "setThreshold",
      "outputs": [],
      "payable": false,
      "stateMutability": "nonpayable",
      "type": "function"
    },
    {
      "constant": false,
      "inputs": [
        {
          "internalType": "uint256",
          "name": "_amount",
          "type": "uint256"
        }
      ],
      "name": "deposit",
      "outputs": [],
      "payable": false,
      "stateMutability": "nonpayable",
      "type": "function"
    },
    {
      "constant": false,
      "inputs": [
        {
          "internalType": "uint256",
          "name": "_amount",
          "type": "uint256"
        }
      ],
      "name": "withdraw",
      "outputs": [],
      "payable": false,
      "stateMutability": "nonpayable",
      "type": "function"
    }
  ],
  "bytecode": "0x608060405234801561001057600080fd5b50600f6001819055506000600360006101000a81548160ff0219169083151502179055506000600360016101000a81548160ff02191690831515021790555060326002819055506108db806100666000396000f3fe608060405234801561001057600080fd5b50600436106100625760003560e01c806312065fe0146100675780632e1a7d4d1461008557806361ac852b146100b3578063960bfe0414610136578063b6b55f2514610164578063e4d7a3d414610192575b600080fd5b61006f6101f1565b6040518082815260200191505060405180910390f35b6100b16004803603602081101561009b57600080fd5b81019080803590602001909291905050506101fb565b005b6100bb61047e565b6040518080602001828103825283818151815260200191508051906020019080838360005b838110156100fb5780820151818401526020810190506100e0565b50505050905090810190601f1680156101285780820380516001836020036101000a031916815260200191505b509250505060405180910390f35b6101626004803603602081101561014c57600080fd5b8101908080359060200190929190505050610508565b005b6101906004803603602081101561017a57600080fd5b8101908080359060200190929190505050610515565b005b61019a6107bf565b6040518080602001828103825283818151815260200191508051906020019060200280838360005b838110156101dd5780820151818401526020810190506101c2565b505050509050019250505060405180910390f35b6000600154905090565b600060018202905061020b61084d565b60405180604001604052803373ffffffffffffffffffffffffffffffffffffffff16815260200183815250905060006001905060008090505b6004805490508110156102d0573373ffffffffffffffffffffffffffffffffffffffff166004828154811061027557fe5b9060005260206000200160009054906101000a900473ffffffffffffffffffffffffffffffffffffffff1673ffffffffffffffffffffffffffffffffffffffff1614156102c557600091506102d0565b806001019050610244565b50801561033e5760043390806001815401808255809150509060018203906000526020600020016000909192909190916101000a81548173ffffffffffffffffffffffffffffffffffffffff021916908373ffffffffffffffffffffffffffffffffffffffff160217905550505b6000548311156103e6576001600360006101000a81548160ff0219169083151502179055506007829080600181540180825580915050906001820390600052602060002090600202016000909192909190915060008201518160000160006101000a81548173ffffffffffffffffffffffffffffffffffffffff021916908373ffffffffffffffffffffffffffffffffffffffff160217905550602082015181600101555050505b826001600082825403925050819055506005829080600181540180825580915050906001820390600052602060002090600202016000909192909190915060008201518160000160006101000a81548173ffffffffffffffffffffffffffffffffffffffff021916908373ffffffffffffffffffffffffffffffffffffffff1602179055506020820151816001015550505050505050565b6060600360009054906101000a900460ff16806104a75750600360019054906101000a900460ff165b156104cc5760405180606001604052806029815260200161087e602991399050610505565b6040518060400160405280601981526020017f4e6f20737573706963696f7573207472616e73616374696f6e0000000000000081525090505b90565b6001810260008190555050565b600060018202905061052561084d565b60405180604001604052803373ffffffffffffffffffffffffffffffffffffffff16815260200183815250905060006001905060008090505b6004805490508110156105ea573373ffffffffffffffffffffffffffffffffffffffff166004828154811061058f57fe5b9060005260206000200160009054906101000a900473ffffffffffffffffffffffffffffffffffffffff1673ffffffffffffffffffffffffffffffffffffffff1614156105df57600091506105ea565b80600101905061055e565b5080156106585760043390806001815401808255809150509060018203906000526020600020016000909192909190916101000a81548173ffffffffffffffffffffffffffffffffffffffff021916908373ffffffffffffffffffffffffffffffffffffffff160217905550505b600054831115610700576001600360006101000a81548160ff0219169083151502179055506007829080600181540180825580915050906001820390600052602060002090600202016000909192909190915060008201518160000160006101000a81548173ffffffffffffffffffffffffffffffffffffffff021916908373ffffffffffffffffffffffffffffffffffffffff160217905550602082015181600101555050505b8260016000828254019250508190555060326001541115610737576001600360016101000a81548160ff0219169083151502179055505b6006829080600181540180825580915050906001820390600052602060002090600202016000909192909190915060008201518160000160006101000a81548173ffffffffffffffffffffffffffffffffffffffff021916908373ffffffffffffffffffffffffffffffffffffffff1602179055506020820151816001015550505050505050565b6060600480548060200260200160405190810160405280929190818152602001828054801561084357602002820191906000526020600020905b8160009054906101000a900473ffffffffffffffffffffffffffffffffffffffff1673ffffffffffffffffffffffffffffffffffffffff16815260200190600101908083116107f9575b5050505050905090565b6040518060400160405280600073ffffffffffffffffffffffffffffffffffffffff16815260200160008152509056fe537573706963696f7573205472616e73616374696f6e2026204d6f6e6579204c61756e646572696e67a265627a7a7231582050f9fc55a5592667b0b60ee6d0a897608427e97c0dd0de591abee80b6846018564736f6c63430005100032",
  "source": "pragma solidity ^0.5.16;\r\n \r\ncontract SimpleRegulator {\r\n    uint threshold;\r\n    uint balance;\r\n    uint fundThreshold;\r\n    bool exceedLim;\r\n    bool moneyLaund;\r\n    address[] clientsAddr;\r\n    \r\n    constructor() public {\r\n        balance = 15;\r\n        exceedLim = false;\r\n        moneyLaund = false;\r\n        fundThreshold = 50;\r\n    }\r\n    \r\n    struct Client {\r\n        address addr;\r\n        uint amount;\r\n    }\r\n    \r\n    Client[] withdraw_clients;\r\n    Client[] deposit_clients;\r\n    Client[] suspicious;\r\n    \r\n    function getAlert() public view returns(string memory) {\r\n        if (exceedLim || moneyLaund) {\r\n            return \"Suspicious Transaction & Money Laundering\";\r\n        } else {\r\n            return \"No suspicious transaction\";\r\n        }\r\n    }\r\n    \r\n    function getBalance() public view returns(uint) {\r\n        return balance;\r\n    }\r\n    \r\n    function getAllClients() public view returns(address[] memory) {\r\n        return clientsAddr;\r\n    }\r\n    \r\n    function setThreshold(uint _threshold) public {\r\n        threshold = _threshold * 1;\r\n    }\r\n    \r\n    function deposit(uint _amount) public {\r\n        uint ethc = _amount * 1;\r\n        Client memory depositor = Client(msg.sender, ethc);\r\n        bool exist = true;\r\n       for(uint i = 0; i < clientsAddr.length; ++i) {\r\n            if(clientsAddr[i] == msg.sender) {\r\n                exist = false;\r\n                break;\r\n            }\r\n        }\r\n        if(exist) {\r\n            clientsAddr.push(msg.sender);\r\n        }\r\n        if(ethc > threshold) {\r\n            exceedLim = true;\r\n            suspicious.push(depositor);\r\n        }\r\n        balance += ethc;\r\n        if(balance > 50) {\r\n            moneyLaund = true;\r\n        }\r\n        deposit_clients.push(depositor);\r\n    }\r\n    \r\n    function withdraw(uint _amount) public{\r\n        uint ethc = _amount * 1;\r\n        Client memory withdrawer = Client(msg.sender, ethc);\r\n        bool exist = true;\r\n        for(uint i = 0; i < clientsAddr.length; ++i) {\r\n            if(clientsAddr[i] == msg.sender) {\r\n                exist = false;\r\n                break;\r\n            }\r\n        }\r\n        if(exist) {\r\n            clientsAddr.push(msg.sender);\r\n        }\r\n        if(ethc > threshold) {\r\n            exceedLim = true;\r\n            suspicious.push(withdrawer);\r\n        }\r\n        balance -= ethc;\r\n        withdraw_clients.push(withdrawer);\r\n    }\r\n}",
  "sourcePath": "C:/Users/Mang-/Banking/contracts/SimpleRegulator.sol",
  "compiler": {
    "name": "solc",
    "version": "0.5.16+commit.9c3226ce.Emscripten.clang"
  },
  "schemaVersion": "3.3.3",
  "updatedAt": "2021-01-19T06:35:20.884Z",
  "devdoc": {
    "methods": {}
  },
  "userdoc": {
    "methods": {}
  }
}